:100000000C9467000C94FF060C9426070C948F0048
:100010000C948F000C948F000C948F000C948F0024
:100020000C948F000C948F000C948F000C948F0014
:100030000C948F000C948F000C948F000C948F0004
:100040000C945D070C948F000C948F000C948F001F
:100050000C948F000C948F000C948F000C948F00E4
:100060000C948F000C948F00000000090003020024
:10007000000405080000000000000000000000016E
:10008000020408102040800102040810200102042C
:100090000810204080400404040404040404020204
:1000A000020202020303030303030202030000002F
:1000B0000023002600290000000000250028002B56
:1000C0000000000000240027002A00006B02112419
:1000D0001FBECFEFD8E0DEBFCDBF11E0A0E0B1E0A2
:1000E000ECE5F5E102C005900D92A832B107D9F711
:1000F00021E0A8E2B1E001C01D92AE37B207E1F7FE
:1001000010E0C7E6D0E004C02197FE010E94EB0892
:10011000C636D107C9F70E944E070C94AC0A0C945E
:1001200000001F93CF93DF93EC01162F0E94960AD5
:10013000181739F0612FCE01DF91CF911F910C94E8
:100140009E0ADF91CF911F9108951F93CF93DF9364
:10015000182FD62FC42F63EA90E080E00E94910010
:10016000612F81E090E00E9491006D2F83E090E08C
:100170000E9491006C2F84E090E0DF91CF911F915D
:100180000C94910063EA90E080E00E94910062E0AC
:1001900081E090E00E94910061E183E090E00E94A4
:1001A000910060E184E090E00C94910090E080E0A8
:1001B0000E94960A833A11F00E94C20081E090E00A
:1001C0000E94960A80932A0183E090E00E94960A9A
:1001D0008093290184E090E00E94960A8093280190
:1001E00008958091330190913401A0913501B0912F
:1001F00036010196A11DB11D809333019093340106
:10020000A0933501B093360108958091280190E0C4
:10021000B0E0A0E08093600190936101A09362013F
:10022000B0936301E0E5F1E081E696E0A0E0B0E0A4
:1002300080839183A283B38383E0848342E050E090
:100240006EE070E087E391E00E94F80387E391E0BD
:100250000C94F50360E08EE00E94220862E083E0E7
:100260000E94220861E085E00E94220861E085E0AA
:100270000E945E0841E050E061EF70E081E00C9484
:10028000DF060E94D6000E9405010C942A018F927D
:100290009F92AF92BF92CF92DF92EF92FF928090A7
:1002A000330190903401A0903501B0903601109246
:1002B00033011092340110923501109236010E94E0
:1002C000A7076B017C01C501B4010E9492094B0193
:1002D0005C0180912B0190912C01A0912D01B09196
:1002E0002E01A7019601281B390B4A0B5B0BCA0193
:1002F000B9010E94920920E030E04AE754E40E94EC
:10030000F1089B01AC01C501B4010E94F10820E095
:1003100030E040E05FE30E94200AC0922B01D092BF
:100320002C01E0922D01F0922E010E946309FF90B2
:10033000EF90DF90CF90BF90AF909F908F900895F7
:10034000FC0124812430A0F180859185A285B385AC
:10035000803F31EC930733E3A30731EDB30711F48A
:100360000C94C200863F38EC930734E4A30730EEC8
:10037000B30739F42730E1F44685658584850C940C
:10038000A500863F994CA444B14E91F480912A0176
:10039000809358018091290180935901809128010F
:1003A00080935A0160E571E087E391E00C94BC050D
:1003B00008950E94470120912A01213069F4209379
:1003C00064018EE00E948C088093680160E671E011
:1003D00087E391E00C94BC05223051F42093640132
:1003E0008EE00E94DB078093680190936901EECF55
:1003F000233061F724E02093640190936B01809394
:100400006A017093690160936801E0CFCF92DF9237
:10041000EF92FF920F931F930E94A70700912F0165
:100420001091300120913101309132016B017C013A
:10043000C01AD10AE20AF30A9701860105361105AE
:100440002105310550F060932F01709330018093A6
:100450003101909332010E94D90160E471E087E399
:1004600091E00E94BF06892B79F58091290190E0E7
:10047000B0E0A0E040914001509141016091420103
:1004800070914301481759076A077B0731F460915F
:100490004801617085E00E945E0880914001909162
:1004A0004101A0914201B091430180369640A105DF
:1004B000B10551F480E491E01F910F91FF90EF900E
:1004C000DF90CF900C94A0011F910F91FF90EF90BF
:1004D000DF90CF9008950F931F9310E000E020E885
:1004E00036E948E950E069E087E391E00E94820242
:1004F0001F910F9108958EBD00000DB407FEFDCF32
:100500008EB508958F929F92AF92BF92FF920F93F4
:100510001F93CF93DF93EC01F62E49015A01011589
:100520001105C1F01E830D83F88289829A82AB8205
:10053000BC8261E08F2D0E94220861E08881DF91FA
:10054000CF911F910F91FF90BF90AF909F908F9090
:100550000C945E088DE791E09E838D830E94B50820
:10056000E3CF0F931F93FC0101811281238134811A
:1005700040E052E16AE770E090E0041715072607B3
:10058000370740F476956795579547959F5F963066
:10059000A1F797E0392F306A369590959170809148
:1005A0007B01882381F08FB7F89420917B01213063
:1005B00091F42DB3209379014DB320917A012095C8
:1005C00024232DBB8FBF3CBD9DBD60E080811F916A
:1005D0000F910C945E0880937901F5CF61E0FC01E6
:1005E00080810E945E0880917B01882361F09FB723
:1005F000F89420917B0180917901213019F48DBB11
:100600009FBF08958FBF08951F93CF93DF93EC0191
:10061000162F0E94B10283E00E947B02812F0E946C
:100620007B0280E00E947B02182FCE010E94EE0226
:10063000812FDF91CF911F910895DF92EF92FF926A
:100640000F931F93CF93DF937C01C62FD42E152FCA
:10065000022F0E94B10283E00E947B028C2F0E9435
:100660007B02CD2DD12F0C0F1D2F111DC017D107CF
:1006700029F080E00E947B028993F8CFC701DF91C7
:10068000CF911F910F91FF90EF90DF900C94EE02AD
:100690000F931F93CF93DF93EC01062F142F0E942B
:1006A000B10282E00E947B02802F0E947B02812F98
:1006B0000E947B02CE01DF91CF911F910F910C948C
:1006C000EE02DF92EF92FF920F931F93CF93DF938F
:1006D0007C01C62FD42E152F022F0E94B10282E07A
:1006E0000E947B028C2F0E947B02CD2DD12F0C0FFC
:1006F0001D2F111DC017D10721F089910E947B0287
:10070000F9CFC701DF91CF911F910F91FF90EF902B
:10071000DF900C94EE02FF920F931F93CF93DF9321
:10072000EC01F62E042F122F0E94B10285E00E94E8
:100730007B028F2D0E947B02802F0E947B02812FE3
:100740000E947B02CE01DF91CF911F910F91FF900C
:100750000C94EE021F93CF93DF93EC010E94B10241
:1007600080EA0E947B0280E00E947B02182FCE016B
:100770000E94EE02812FDF91CF911F910895CF92B9
:10078000DF92EF92FF921F93CF93DF93EC01162F2E
:10079000262F40EE6FE00E948B030E94A7076B019B
:1007A0007C012AE0C20ED11CE11CF11C0E94A707AB
:1007B0006C157D058E059F0598F46EE0CE010E94B4
:1007C0000403807E1813F2CF81E091E0892790E046
:1007D000DF91CF911F91FF90EF90DF90CF90089520
:1007E00080E0F3CF60E80C94BF0360E00C94BF039B
:1007F000EF92FF920F931F93CF93DF938C01EB0146
:100800007A010E94F203009709F03FC081E0E816E8
:10081000F10409F45FC008F49DC082E0E816F10419
:1008200009F0DFC0C031D10508F0DBC0FE01E55E94
:10083000FB4F0C94EB08DD04E7042B042F04320477
:100840004C0450045304F104F10457045A045D04A9
:10085000610464046704D7E8CFEB47E006C0D4E83E
:10086000C4EAFBCFD5E8C2EE47E46AE2C8010E94C1
:1008700048034C2F69E2C8010E9448034D2F68E2EB
:10088000C8010E94480390E080E0DF91CF911F9162
:100890000F91FF90EF900895D7E8CFEB43E0E5CFBD
:1008A000D6E8C4EBFBCFD7E8CFEB41E0DECFD6E80C
:1008B000C4EBFBCFD5E8C1EBF8CFD6E8C4EB40E002
:1008C000D4CFD5E8C1EBFBCFD2E8C0E9F8CFD0E870
:1008D000C0E8F5CFC031D10508F083C0FE01ED5866
:1008E000FB4F0C94EB08E104EA048304F104870451
:1008F0008B048E04910494049704EE049A049D04DE
:10090000A004A404A704D7E8CFEF4FE0AECFD5E80A
:10091000C1EF4EE4AACFD7E8CFEF9FCFD7E8CAEF19
:100920009CCFD7E8CFEFBACFD7E0CEEBB7CFD7E0A9
:10093000CDEAB4CFD6E8C0EFB1CFD7E8CAEFB5CF94
:10094000D5E8C1EF41E491CFD6E8C0EFB8CFD2E807
:10095000C0EDB5CFFE013497EC30F10508F041C091
:10096000EC54FB4F0C94EB08E404C404C004C7042B
:10097000CB04F104CE04EE04D104D404D704DA0489
:10098000D7E8CAEF49E071CFD7E8CFEFFBCFD7E880
:10099000CFEF44E06ACFD7E8CEEFFBCFD7E8CAEF7E
:1009A000F8CFD7E8CFEF81CFD6E8CBEFCBCFD7E8E2
:1009B000CAEF85CFD2E8C9ED82CFCFEB4FE1D7E8C0
:1009C00054CFCFEF4FE3FBCFCFEF4BE0F8CFD7E8DB
:1009D000CFEB9BCFD7E8CFEF4FE147CFD7E8CAEFB8
:1009E0005DCF81E090E051CF0F931F93FB01442333
:1009F000C1F003831283890122273327802F880FB8
:100A0000880F880F807E902F93709860892B818348
:100A100055E0169507955A95E1F700831F910F91C0
:100A20000895C80123E0969587952A95E1F780837C
:100A30000295000F007E018313821282EFCF2F9266
:100A40003F924F925F926F927F928F929F92AF925E
:100A5000BF92CF92DF92EF92FF920F931F93CF93AB
:100A6000DF93CDB7DEB72D970FB6F894DEBF0FBE7C
:100A7000CDBF7C01DB01FA012481293008F079C067
:100A80000081118122813381B901A801442777FDBA
:100A900043955527662777274801590188249924CB
:100AA000AA2480E4B82244244A9457E0552E612CAD
:100AB000712C37FF06C044244A94542C642C9FE1C7
:100AC000792E1F016D010421152126213721BE0138
:100AD0006F5F7F4FC7010E94F404F1011481812FE1
:100AE00089288A288B2809F080648D83412F50E063
:100AF000B101685F7F4FCE0106960E948D0A25E006
:100B0000210F8601000F111F0C0D1D1D015E1E4FD0
:100B1000AE014F5F5F4FF8016181C7010E94610321
:100B2000F801108128E048E0612FC7010E948B0383
:100B3000612FC7010E9404038077D9F490E080E020
:100B40002D960FB6F894DEBF0FBECDBFDF91CF91CB
:100B50001F910F91FF90EF90DF90CF90BF90AF90DB
:100B60009F908F907F906F905F904F903F902F90CD
:100B7000089584E090E0E4CF8F929F92AF92BF926D
:100B8000CF92DF92EF92FF920F931F93CF93DF9359
:100B900000D000D000D0CDB7DEB7FB0124812930D2
:100BA00008F052C06B017C0186E0E1E1F1E0DE017A
:100BB000119601900D928A95E1F78E010F5F1F4FFC
:100BC0004E01F7E08F0E911CF801A190B1908F01BA
:100BD000F501EE0FFF1FEA0DFB1DE15EFE4F608188
:100BE000C7010E94040383FD17C0A601B501C70118
:100BF00026960FB6F894DEBF0FBECDBFDF91CF9122
:100C00001F910F91FF90EF90DF90CF90BF90AF902A
:100C10009F908F900C941F0508151905A9F682E086
:100C200090E026960FB6F894DEBF0FBECDBFDF91E1
:100C3000CF911F910F91FF90EF90DF90CF90BF90D9
:100C4000AF909F908F90089584E090E0EACF7F92DC
:100C50008F929F92AF92BF92CF92DF92EF92FF92CC
:100C60000F931F93CF93DF9300D000D01F92CDB787
:100C7000DEB74C015A018B01000F111F000F111F2D
:100C8000F801E95EFE4F25E0AE014F5F5F4F6181E5
:100C90000E941D038A81C98098E0C99E60011124C9
:100CA000282F30E055E0359527955A95E1F7C20E8B
:100CB000D31E0D2C000CEE08FF0883FF20C092E02D
:100CC000CC0CDD1CEE1CFF1C9A95D1F78370C80E6E
:100CD000D11CE11CF11CFE2CED2CDC2CCC248B81D6
:100CE000C80ED11CE11CF11CFE2CED2CDC2CCC24FC
:100CF0008C81C80ED11CE11CF11C6894F7F88D8121
:100D00008F70782EE8E081E090E0E71528F1F80197
:100D1000E95EFE4F6081C4010E94040383FF02C0AC
:100D20006894F6F8F501C082D182E282F38274827F
:100D3000A501485F5F4F095E1E4F272DF8016281B4
:100D4000C4010E941D0320E0F80143816CE2C4014C
:100D50000E948B0390E080E00F900F900F900F9017
:100D60000F90DF91CF911F910F91FF90EF90DF9047
:100D7000CF90BF90AF909F908F907F9008950F93EA
:100D80001F93CF93DF93EC018B010E94AA03A8016C
:100D900070E060E080FD04C081FF09C061E070E0A8
:100DA000CE01DF91CF911F910F910C94270685E022
:100DB00090E0DF91CF911F910F91089508958230B7
:100DC000E8F4E82FF0E0EE0FFF1FE050FF4F7183D3
:100DD0006083813041F0809169008C7F482B409383
:100DE0006900E89A089580916900837F440F551F38
:100DF000440F551F482B40936900E99A08951F92AC
:100E00000F920FB60F9211242F933F934F935F933E
:100E10006F937F938F939F93AF93BF93EF93FF93C2
:100E2000E0910001F09101010995FF91EF91BF91CF
:100E3000AF919F918F917F916F915F914F913F9172
:100E40002F910F900FBE0F901F9018951F920F9229
:100E50000FB60F9211242F933F934F935F936F938D
:100E60007F938F939F93AF93BF93EF93FF93E09103
:100E70000201F09103010995FF91EF91BF91AF91AC
:100E80009F918F917F916F915F914F913F912F91A2
:100E90000F900FBE0F901F90189508950E94B307F2
:100EA0000E944D070E944101C0E0D0E00E9406026E
:100EB0002097E1F30E940000F9CF1F920F920FB626
:100EC0000F9211242F933F938F939F93AF93BF93D0
:100ED0008091750190917601A0917701B091780190
:100EE0003091740123E0230F2D3768F126E8230F9A
:100EF0000296A11DB11D20937401809375019093FA
:100F00007601A0937701B093780180917001909160
:100F10007101A0917201B09173010196A11DB11DE3
:100F20008093700190937101A0937201B09373014B
:100F3000BF91AF919F918F913F912F910F900FBED5
:100F40000F901F9018950196A11DB11DD4CF2FB7FA
:100F5000F89460917501709176018091770190917C
:100F600078012FBF0895789484B5836084BD85B5DA
:100F7000836085BDEEE6F0E0808181608083E1E8FA
:100F8000F0E082E08083808181608083E0E8F0E0AF
:100F9000808181608083E1EBF0E0808184608083E8
:100FA000E0EBF0E080818160808387E880937A00C5
:100FB0001092C1000895883020F08D3008F48DE043
:100FC0008E502091040190E4299F90011124877094
:100FD000822B80937C0080917A00806480937A00D9
:100FE00080917A0086FDFCCF809178009091790005
:100FF0000895843081F028F48230E9F08330F9F0EC
:101000000895883071F0893091F08530B9F480917D
:1010100080008F7D03C0809180008F778093800057
:1010200008958091B0008F778093B00008958091EB
:10103000B0008F7DF9CF84B58F7784BD089584B5D6
:101040008F7DFBCFCF93DF9390E0FC01E158FF4F02
:1010500024918A569F4FFC0184918823C9F090E027
:10106000880F991FFC01EF53FF4FA591B491FC012C
:10107000E954FF4FC591D49161110DC09FB7F89409
:101080008C91209582238C938881282328839FBF6D
:10109000DF91CF910895623051F49FB7F8943C915D
:1010A000822F809583238C93E8812E2BEFCF8FB7EF
:1010B000F894EC912E2B2C938FBFEACF1F93CF93F4
:1010C000DF93282F30E0F901E859FF4F8491F901AF
:1010D000E158FF4FD491F901EA56FF4FC491CC2358
:1010E000A9F0162F81110E94F907EC2FF0E0EE0F06
:1010F000FF1FE954FF4FA591B4918FB7F894EC917D
:10110000111108C0D095DE23DC938FBFDF91CF9102
:101110001F910895DE2BF8CFCF93DF93282F30E077
:10112000F901E859FF4F8491F901E158FF4FD4913B
:10113000F901EA56FF4FC491CC23A1F081110E941E
:10114000F907EC2FF0E0EE0FFF1FE355FF4FA591DD
:10115000B491EC91ED2381E090E009F480E0DF911F
:10116000CF91089580E090E0FACFCF93CFB7F89475
:1011700080917C01811127C0E0EAF0E08491E9E8E8
:10118000F0E09491E82FF0E0EE0FFF1FEF53FF4FD8
:10119000A591B491EC91E92321F461E08AE00E94E9
:1011A0005E0861E08AE00E9422088CB580618CBDF7
:1011B0008CB580648CBD61E08DE00E94220861E006
:1011C0008BE00E94220880917C018F5F80937C01DC
:1011D000CFBFCF910895EE0FFF1F0590F491E02D42
:1011E00009940E9405090C94E6090E94DF0958F051
:1011F0000E94D80940F029F45F3F29F00C94CF09F0
:1012000051110C941A0A0C94D5090E94F70968F33D
:101210009923B1F3552391F3951B550BBB27AA27AF
:1012200062177307840738F09F5F5F4F220F331FE9
:10123000441FAA1FA9F335D00E2E3AF0E0E832D0B1
:1012400091505040E695001CCAF72BD0FE2F29D0B4
:10125000660F771F881FBB1F261737074807AB0786
:10126000B0E809F0BB0B802DBF01FF2793585F4FFB
:101270003AF09E3F510578F00C94CF090C941A0A6D
:101280005F3FE4F3983ED4F3869577956795B795DD
:10129000F7959F5FC9F7880F911D9695879597F9E8
:1012A0000895E1E0660F771F881FBB1F6217730761
:1012B0008407BA0720F0621B730B840BBA0BEE1F76
:1012C00088F7E09508950E94FF0988F09F5798F0ED
:1012D000B92F9927B751B0F0E1F0660F771F881F3B
:1012E000991F1AF0BA95C9F714C0B13091F00E9455
:1012F000190AB1E008950C94190A672F782F8827EE
:10130000B85F39F0B93FCCF3869577956795B3957B
:10131000D9F73EF490958095709561957F4F8F4FEA
:101320009F4F0895E89409C097FB3EF490958095EF
:10133000709561957F4F8F4F9F4F9923A9F0F92F9B
:1013400096E9BB279395F695879577956795B79519
:10135000F111F8CFFAF4BB0F11F460FF1BC06F5FFF
:101360007F4F8F4F9F4F16C0882311F096E911C011
:10137000772321F09EE8872F762F05C0662371F032
:1013800096E8862F70E060E02AF09A95660F771F46
:10139000881FDAF7880F9695879597F9089597F93A
:1013A0009F6780E870E060E008959FEF80EC08950B
:1013B00000240A9416161706180609060895002434
:1013C0000A9412161306140605060895092E0394AE
:1013D000000C11F4882352F0BB0F40F4BF2B11F422
:1013E00060FF04C06F5F7F4F8F4F9F4F089557FD81
:1013F0009058440F551F59F05F3F71F04795880F83
:1014000097FB991F61F09F3F79F087950895121619
:1014100013061406551FF2CF4695F1DF08C01616C5
:1014200017061806991FF1CF869571056105089476
:101430000895E894BB2766277727CB0197F908958D
:101440000E94330A0C94E6090E94D80938F00E94E1
:10145000DF0920F0952311F00C94CF090C94D509E5
:1014600011240C941A0A0E94F70970F3959FC1F396
:10147000950F50E0551F629FF001729FBB27F00D42
:10148000B11D639FAA27F00DB11DAA1F649F662797
:10149000B00DA11D661F829F2227B00DA11D621FE6
:1014A000739FB00DA11D621F839FA00D611D221FA0
:1014B000749F3327A00D611D231F849F600D211D84
:1014C000822F762F6A2F11249F5750409AF0F1F007
:1014D00088234AF0EE0FFF1FBB1F661F771F881F70
:1014E00091505040A9F79E3F510580F00C94CF09D0
:1014F0000C941A0A5F3FE4F3983ED4F386957795EF
:101500006795B795F795E7959F5FC1F7FE2B880F15
:10151000911D9695879597F90895FB01DC0102C00E
:1015200001900D9241505040D8F70895F999FECF9F
:1015300092BD81BDF89A992780B50895262FF99913
:10154000FECF1FBA92BD81BD20BD0FB6F894FA9AA6
:0C155000F99A0FBE01960895F894FFCFA1
:10155C00DE0600000100000100020003000400058B
:10156C0000000001000200606166017071760230BB
:08157C00313640414650515642
:00000001FF
